S01B00006275696C642F72656C656173652F7A69676265652E73333714
S2140040000810002031770000BDB9000017420300F9
S21400401017420300C5B90000CDB9000017420300DF
S214004020174203001742030017420300174203001B
S214004030D1B9000068860400174203001742030047
S214004040174203001742030017420300497200009C
S21400405017420300174203001742030017420300EB
S2140040601742030017420300D1BE000017420300A8
S21400407017420300174203001742030017420300CB
S21400408017420300174203001742030017420300BB
S21400409017420300174203001742030017420300AB
S2140040A017420300F97A0000DD7A00001742030089
S2140040B0174203001742030017420300210E0200B6
S2140040C0D39C0300CF9C030085050200E99C0300F7
S2140040D0D79C0300E10D0200DB9C030015F20100F3
S2140040E0610E020017420300174203001742030046
S2140040F0174203001742030017420300174203004B
S214004100174203001742030017420300174203003A
S214004110174203001742030017420300174203002A
S214004120174203001742030017420300174203001A
S208004130174203002A
S214004134F0B5114A114C124E00F00105E3695F0711
S21400414413D40DB9334213D103EA00078F4207D1C3
S2140041540B4A1A40002A14BF6FF001000020F0BD7D
S214004164013AEBD16FF00200F9E74FF0FF30F6E7C3
S2140041746FF00100F3E700BF80969800000003503C
S214004184020001000B4B70B5D96911F480310DD1D2
S21400419401244FF48072084E084DF46020462C64C7
S2140041A41A61FFF7C5FF3464EC6070BD6FF0010060
S2140041B4FBE700BF0000035000100350002003502C
S2140041C438B541F6713301220C4C0021E569E363EE
S2140041D40B4B05F48035DA600223606121202361ED
S2140041E4FFF7A6FF10B92120FFF7A2FF0122054B17
S2140041F4DA600DB10023E36338BD00BF000003504E
S214004204001003500020035070B5134C6061E3693E
S2140042145B071ED40E4656F8043B8D18A361AE42C7
S2140042240BD10423002121202361FFF781FF58B915
S214004234BDE870402120FFF77BBF08210846FFF742
S21400424477FF10B10423236170BD56F8043BA361C5
S214004254E5E74FF0FF30F7E7000003502DE9F84399
S214004264154641F67132164B8946DF69DA63012238
S214004274064603F58053DFF8508007F48037DA608B
S21400428455B9284601220F4BDA601FB10022A3F568
S2140042940053DA63BDE8F88306F5005404EA08041C
S2140042A4A41BAC4228BF2C46494622463046FFF79C
S2140042B4ABFF0028E6D12644A1442D1BE0E700BF4F
S2100042C4000003500020035000E0FFFF45
S2140042D02DE9F04F4FF0FD0BC9B09A460DF11B09C2
S2140042E09DF8503108AFCDF80C90CDF808B0019786
S2140042F0059303890446009383790E4690464188C9
S2140043008288407811F0AAFA054650B10090A3883A
S214004310002062883A4911F0E5FD284649B0BDE81C
S214004320F08F99F8000032F0F2FF38B12846A388E3
S2140043306288344911F0D6FD8D25EEE75A46394697
S21400434099F8000032F08BFF8346002851D0529B2C
S2140043501BB1BDF84C3198424BD8002399F8009019
S2140043600793A9F14102012A5FFA8BF123D8384658
S2140043700139254ADFF898C05FFA81FE734513DBE2
S214004380059B04210792C3B907AF18221F489FED6B
S2140043901A7B02FB060420460A460830394684ED9E
S2140043A0027B16F0F5FA11E010F8011F01335140B8
S2140043B00CFB01F2E2E7059B33B123464A4638463A
S2140043C000960FF073F9A8E70829DED9B8F1000FB8
S2140043D001D088F80090BAF1000F01D0AAF800B01A
S2140043E0529B002B99D05A46184608A916F0D0FAC8
S2140043F093E7012591E700BF0000000000000000E1
S2140044001E30040053300400C59D1C81801000201F
S21400441093010001000000002DE9F04F93B0CDE9B4
S2140044200A32DDE91C530E9353EC102BCDE908013C
S214004430104619468DED060B1E9E15F033FD80B115
S214004440DDE906014FF0FF32C54B15F053FD40B9CC
S214004450DDE906014FF0FF326FF4801315F02CFDF6
S21400446070B1DDE908019DED060B0E9B1E96CDE9A9
S2140044701C53DDE90A3213B0BDE8F04F00F088B9EE
S2140044800022DDE90601002315F016FD002800F0E5
S2140044903381DDE906A303F1004BCBF30A5016F493
S2140044A08063A0F2FF3008BF06250F9315F028FAA8
S2140044B09BA3D3E9002315F08DFA9BA3D3E9002331
S2140044C015F0D2F8CBF31304894644F07F518046AA
S2140044D00022A44B504641F4401115F0C3F894A3B3
S2140044E0D3E9002315F076FA02460B4640464946C5
S2140044F015F0BAF815F008FD044615F001FA8EA37B
S214004500D3E900238046894615F064FA0022964BCC
S21400451015F0AAF815F0F8FC89A3D3E9002307469E
S2140045204946404615F056FA80463846894615F004
S214004530E7F985A3D3E9002315F04CFA02460B46AB
S2140045404046494615F08EF802460B46CDE90C2348
S21400455015F040FADDE90C238046894610461946D8
S21400456015F082F80022CDE91001804B40464946FE
S21400457015F05AFB00227E4B15F076F802460B46E5
S2140045804046494615F050FB00227A4B15F06CF871
S21400459002460B464046494615F046FBDDE90C232D
S2140045A08046894600204FF0804115F05BF80246B1
S2140045B00B464046494615F057F802460B46DDE9DD
S2140045C0100115F031FB07F2FF3700226A4B15F099
S2140045D04BF800223B0515F0FDF952465B46804637
S2140045E0894615F087FC002840F08980CDE90C89C3
S2140045F004F16303C62B8CBF0527042731051BD5A2
S21400460053A3D3E900235046594615F069FC002809
S2140046107FD051A3D3E900235046594615F04CFCF1
S214004620002876D00027A542C6BF2C1B04F1FF3514
S21400463000253C4646F480660E9B9F422CBF4FF0FA
S2140046400008A3EB070816F0020903D0002F18BFD6
S2140046504FF000083CB1DDE90C235046594615F0F2
S214004660E3FA82468B46DDE906010022002315F0B8
S21400467023FC10B10BF100439B46DDE9080126F44C
S2140046800063CDE90183DDE90A324BEC10AB0095FF
S21400469000F07EF802465FB3DDE9091316F0200F3E
S2140046A000F10105089E0CBF65204520B047DDE9F6
S2140046B008010523002205930A23002CCDE90232C7
S2140046C007F1FF374FEAD473B8BF64422A46019316
S2140046D004970A9B009434F074FC0246B9F1000F6C
S2140046E006D00B9BC41A0B9B1A190E9BA34245D8E7
S2140046F0104613B0BDE8F08FDDE906ABCDE600222C
S214004700404649461A4B15F08FFA013CCDE90C019C
S2140047106EE7002D90D00F9B002B8DD0013D8BE7D0
S214004720FB799F501344D33FB3C8608B288AC63F9B
S21400473061436F63A787D23F71A379094F930A40FD
S2140047401655B5BBB16B0240EF39FAFE422EE63F76
S2140047502D431CEBE2361A3F0000000080842E41F9
S214004760FFFFEF7F0000F83F0000E03F00002C4016
S21400477000002440000018400000F03F2020DDE943
S2140047800913089DA8470134ADE700BF00000000EC
S2140047902DE9F04F5BEC10AB97B0CDE90501DDE9F4
S2140047A02058CDE90723504652465B465946229F7D
S2140047B015F078FB70B90323CDE902870193AA4B65
S2140047C00093DDE90501DDE9072334F02CFB17B083
S2140047D0BDE8F08F4FF0FF326FF480135046594615
S2140047E015F06AFB28B10423CDE9028701939F4B9D
S2140047F0E6E74FF0FF32504659469D4B15F07AFBE0
S21400480068B19C4A07F00403002B08BF03229A4BAA
S2140048101CBF13460422CDE902870192D0E750461A
S2140048208DA3D3E90023594615F064FB38B98CA351
S214004830D3E900235046594615F03EFB68B1DDE942
S2140048400723DDE905014BEC10ABCDE92187209568
S21400485017B0BDE8F04FFFF7DFBD0022002350463B
S214004860594615F029FB002800F091805B46524619
S2140048700020002114F0F6FE012382468B460993A1
S21400488017F4806400F08580092D40F285800024AE
S21400489030210EABA5F109020134202C03F8011BD0
S2140048A0A5EB040901D09442F6D15946504615F0BE
S2140048B02BFB724B054603EBC90393ED007B8DED96
S2140048C00A7B15F01DF802460B465046594614F072
S2140048D0C9FEDDE90A2315F07DF802460B46CDE950
S2140048E00C2315F039FB064614F0FAFF02460B4679
S2140048F0DDE90C0114F0B6FE02460B46CDE90C23AA
S21400490000225F4B15F0F6FA002848D001363046F4
S21400491014F0E6FF02460B46DDE90A0115F0D6FA6A
S21400492008B100260135B9F1000F45D1284614F02C
S214004930E7FF02460B465046594614F093FE002207
S2140049404F4B15F0B9FA10B9E90700D501350A2121
S2140049500EAB1A19202C0AD095FBF1F001FB10556E
S214004960303502F8015B013405460028F2D107F025
S2140049700302012A55D1B8F1000F52D0099A12B994
S21400498017F00C0F01D008F1FF38302240E00990F4
S21400499076E74FF0060988E7A946002485E7002257
S2140049A0DDE90C01364B15F087FA0028BBD10EB1B5
S2140049B0F007B8D50136B6E70A210EAB1A19202C37
S2140049C00DD0B6FBF1F001FB1063092E03F13003A6
S2140049D009F1FF3904F1010402F8013B11D8302136
S2140049E0A1440EAA202CB2D04C4504F101030AD1F2
S2140049F004F158020DEB02042E2204F8202C1C466B
S214004A00A5E70646DBE7A1541C46EBE71A5501343A
S214004A10444506D2202CF9D1CDE9028701940EAB8D
S214004A20CEE6202CF8D0099B3BB12D2204F158038A
S214004A306B4403F8202C0134EEE77A0704D504F122
S214004A4058032B226B44F4E73B07E5D504F15803E3
S214004A5020226B44EDE700BF0000000065CDCD418D
S214004A600000000065CDCDC10D4E0400114E0400BF
S214004A70FFFFEF7F044E0400094E0400A0950400DB
S214004A800000E03F0000000070B58EB02C22002130
S214004A9003A815F0EDFD64234FF002320893CDE92C
S214004AA005230B2301218DF834305B4B8DF8101055
S214004AB01D880D4040F0A980084638F041FD0A22C6
S214004AC0564B574C1A704FF42873ADF812304FF00F
S214004AD0FF332360534B54491B8820460B82534BAD
S214004AE0534A1B68CD828B61524B0D621B884B82EA
S214004AF0514B1B68CB611CF029FA20B14FF41B7197
S214004B004E4839F05BFE0521206834F043FC20B1A6
S214004B1040F27D21494839F051FE206814F05EFDD0
S214004B20474B2068196834F0F8FC0C2539F070F90A
S214004B306843099039F06CF968430DEB050107905E
S214004B40206816F057FC20B140F295213B4839F01A
S214004B5035FE25681EF0A4FD00220146284634F0E6
S214004B6054FD20B140F29721344839F027FE40F238
S214004B700353344D344E2B80052396F90000AB705A
S214004B807F2801D11CF0D8FA3378EB7039F040F961
S214004B9000EB80008000A88039F03AF90023C000BE
S214004BA04FF0FF31E880AB604FF0FF3018A3D3E939
S214004BB0002338F017FE2549206834F0DFFC206813
S214004BC002A935F0FBF820B14FF434711B4839F0D8
S214004BD0F5FD042220680DEB020134F073FC042876
S214004BE004D040F2D721154839F0E8FD01A901208C
S214004BF034F07EF806F026FF01201CF02FFF30F080
S214004C0066F81CF055FF1CF02FFA0EB070BD00BF02
S214004C100A0020FF42030000525C0020A863002028
S214004C2084540020D2AE0400646A0020D8AE04008B
S214004C3069D50300D0AE0400D4AE04003C85040061
S214004C40B467002078540020806D0020DDD5030076
S214004C500348044B834202D0034B03B11847704706
S214004C60B46D0020B46D002000000000064B07491C
S214004C70C91A891048BF0131491003D0044B0BB143
S214004C8001481847704700BFB46D0020B46D00207F
S214004C900000000010B5064C237843B9FFF7D8FF94
S214004CA0044B13B10448AFF300800123237010BDFA
S214004CB0681600200000000078D2040008B5044BF7
S214004CC01BB104490448AFF30080BDE80840CDE7B7
S214004CD0000000006C16002078D20400A3F5803A8D
S214004CE0704700BF154B002B08BF114B9D46FFF7C2
S214004CF0F5FF00218B460F461148124A121A15F08E
S214004D00B7FC0C4B002B00D098470B4B002B00D069
S214004D1098470020002104000D000B4815F0EEFF18
S214004D2015F07EFC200029002EF0A4FF15F0D4FF1D
S214004D30000008000000000000000000081000202E
S214004D40081000200C64002065AD010007B50121A5
S214004D5020200DF1070200F059FF50B1012120205C
S214004D600DF107028DF8071000F060FF03B05DF844
S214004D7004FB9DF807100129F8D00122084814F01A
S214004D8065FB01210DF1070220208DF8071000F0C9
S214004D904DFF2EF0F3FE4FF4FA6000F047FEE5E715
S214004DA008EC030038B501F0C9F8012805D001F079
S214004DB0C5F8022801D001F0D9F8064D2B783BB98A
S214004DC001F0BCF80128044602D12EF04AFF2C70F0
S214004DD038BD00BF3E5D002010B50446008800F0D8
S214004DE091FEA37884F84400834202BF0123E37057
S214004DF02371074B04F11C00C4E9073400F05CFF84
S214004E00224620880349BDE8104000F093BE00BF4C
S214004E105F3903002939030070B5C37804460D4690
S214004E201646002B34D1D1B1214814F00FFB0123D4
S214004E30E370E36CA6600BB1E06D9847E368F61A82
S214004E4063699E4221D2217E1A480131C9B2217679
S214004E5014F0FCFAA36D13B1217EE06D9847E5705F
S214004E602EF09FFE15B3237903BBA268238A801A0F
S214004E7083421BD801231048237114F0E7FA236DF0
S214004E80A3B1E06DBDE87040184701232376E6E73E
S214004E900029E4D1094814F0D9FA636DE660E5709C
S214004EA02571002BDBD0E06D9847D8E770BD00BFBA
S214004EB030EC030041EC03006FEC03005CEC0300F5
S214004EC070B51E46838804460D46C18002810BB12C
S214004ED0868070BD817800882EF062FD0123E37025
S214004EE0064BA680C4E903340C34204600F0E4FEEA
S214004EF029462046BDE870402EF04ABEAB39030076
S214004F0010B501790446B1FA81F1008849092EF0FE
S214004F10BEFD21796088B1FA81F149092EF0B7FD0E
S214004F20034B1A68A24204BF00221A6010BD00BFDD
S214004F308416002070B543790446A3B100880E4E4F
S214004F4004F10805336813B10C4B1B786BB121795B
S214004F502EF09DFD64210A4B3460A3602846BDE810
S214004F6070402EF015BE4088E9E7064814F06EFA49
S214004F70054B3221A360F1E7841600203F5D002038
S214004F80014F000085EC0300354F000010B50446C5
S214004F90E0B10F4814F05AFA01236371A37953B9AC
S214004FA0217920882EF073FD236B7BB1606B012185
S214004FB0BDE8104018472046FFF7A2FF04F108009E
S214004FC02EF0EBFD2046FFF7B5FFEDE710BD00BF66
S214004FD0BBEC030010B50446F8B1104814F036FADE
S214004FE000236371A3796BB921792088B1FA81F126
S214004FF049092EF04CFD236B7BB1606B0021BDE8A8
S214005000104018472046FFF77BFF04F108002EF0FB
S214005010C4FD2046FFF78EFFEDE710BDC6EC03008B
S21400502010B5044668B1074814F010FA63792046B4
S2140050301BB1BDE81040FFF7CDBFBDE81040FFF73D
S214005040A5BF10BDD2EC030010B50E4C0E4821468D
S21400505014F0FCF982210D4814F0F8F982210220A0
S214005060A21E00F0E3FD014630B134F8022C0848D9
S214005070BDE8104014F0EAB90648BDE8104014F048
S214005080E5B900BFD6550020E1EC0300FCEC0300B8
S21400509007ED03004BED030038B5104C8221224685
S2140050A0022000F0B3FDA51C014678B122880C480A
S2140050B014F0CCF92A460B4B03F13C0153F8040BD1
S2140050C08B4242F8040BF9D13B23238035F8021CAF
S2140050D0054A0648BDE8384014F0B8B9D455002053
S2140050E056ED0300D6ED0300D6550020B4ED0300C0
S2140050F0034B1B781BB18B4201D82EF03FBD704787
S214005100206D002010B5044601460D4814F09EF9A7
S214005110012C0FD10B4B0C481A884FF6FF739A429E
S2140051201EBF0022084B5A742EF097FCBDE81040B4
S21400513001F09EBB0448BDE810402EF090BC00BFB6
S21400514012EE0300D46C00204067002070B50024E7
S214005150184D194E3378A34217DC0024174D184E0D
S2140051603378A34217DC0024164D174E3378A3423B
S21400517017DC00F0E3FE0128144818D12EF06DFC71
S214005180BDE87040124800F0EBBE2846FFF724FE4C
S21400519001346035DEE728462EF045FC0134343510
S2140051A0DEE728462EF078FC01343835DEE72EF0B0
S2140051B056FCE5E7B8210020455D0020D8250020F4
S2140051C0465D0020881F0020445D002040670020C8
S2140051D0055100002DE9F04F87B0FFF75DFFB34B98
S2140051E005A805932EF07CFC054615F03DF9B04C5D
S2140051F0C2B21F2A627004D9AE4814F027F900F034
S21400520009FC2946A01C15F0C3FB05A82EF068FC77
S214005210054615F029F9C2B21F2A84F8212001D9C3
S214005220A548EAE7294604F1220015F0B1FB05A8D7
S2140052302EF056FC3226044600272578002D40F036
S21400524092809E4CFFF782FF2378DFF8ACA2DFF84F
S214005250AC829B4E00939AF8003098F80020317884
S214005260984814F0F3F8327898F800109AF800008E
S21400527053180344944F20782C4603443846DBB238
S214005280AA4200F3D782012B38BF0123DFF840B2D1
S21400529002935A4600235D464FF482714FF6FF7420
S2140052A002980133834213705180948002F10C02FD
S2140052B0F6DB864B86497E48AB6000F011FFE87946
S2140052C0AB6800EB400003EB800000F0E9FCEB79F4
S2140052D00133EB717F4B1B88A34203D07C497E4889
S2140052E001F000F84FF00009784C32784A4500F398
S2140052F0CB8200274FF00C09784ADFF8D4B198F833
S21400530000003178B84200F3D48247180C210025FB
S21400531001FB07B19AF800009423A842704A00F3F4
S214005320E6820C2598F8003000274FF07008367893
S214005330DFF8CCA11E44064405FB06B55F4B1B7880
S214005340BB4200F3E7820299614800F037FD059BF7
S21400535056491A468B4240F0F082624807B0BDE8D4
S214005360F04F14F073B8532D0FD163784C2B40F0E8
S2140053704781A378502B40F0438101225A4B1A7084
S21400538005A82EF0ADFB044657E7442D13D16378ED
S214005390303B092BF4D8601C2EF0AFFB534B544A1D
S2140053A01978002386B2994202F16002E8DD22F8FD
S2140053B0466C0133F7E7422D0BD16378542B55D159
S2140053C0A01C00F00BFC434B188018462EF089FA00
S2140053D0D6E7582D34D8412DD2D9433D152DCFD8F8
S2140053E001A353F825F000BFA35700008153000027
S2140053F08153000081530000815300008153000058
S21400540053550000815300008153000005550000ED
S2140054105354000081530000815300008153000064
S214005420815300008556000001560000815300009D
S214005430815300008153000081530000FB5600009A
S214005440692D9DD1601C2EF058FB80B22EF092FB89
S21400545096E71B4B0120197800231B4A994202F15C
S214005460A8028DDD02F8A60C0133F7E7601C00F0F9
S214005470B5FB0546E01C2EF066FB012102462846D9
S21400548000F0FAFA60211948194C0378594362185B
S21400549065524FF4FA6111824FF448715161154913
S2140054A056831165013303706AE700BFD6550020A6
S2140054B05466002031EE030048EE0300405D0020F5
S2140054C0435D002058EE0300DC1C0020501700202F
S2140054D0D8160020D46C002088160020DC1B002084
S2140054E0201A0020A8EE03003F5D0020455D002046
S2140054F0B8210020CB3A0300415D0020425D002029
S214005500D0180020601C00F069FB00224FF0340821
S2140055108146CD4F114600F0AFFA3878CB4D08FBE8
S21400552000F325F80390EA18E3781046693B18BFA5
S214005530012393702EF077FA0021C54A3B7851601C
S214005540012103FB08550B443B7015600F46117490
S21400555016E7601C00F042FB00221146814600F070
S2140055608BFA3422B84DDFF8E482287802FB00F389
S21400557028F8039008EB0301E3780846693B18BF58
S21400558001238B702EF04FFAB24A00231046916B1F
S21400559031BB00EB831034232A7802FB038383633A
S2140055A0AD4A00231046D2F8A410F9B9A82202FB8F
S2140055B0030034232A7802FB0383C0F8A4305FB9C3
S2140055C0A34A3B46114652F8040BA8B93422287861
S2140055D000FB028241F823202B7801332B70CFE6A4
S2140055E00133042B02F14002D1D1D9E70133042B59
S2140055F002F1A802D7D1E2E70133042BE3D1EBE7AF
S214005600601C00F0EBFA8046E01C2EF09CFA0121AC
S2140056100246404600F030FA60219048904D0278ED
S214005620DFF858C251436B1825F801804FF44871D3
S214005630198259618B495E839965E178A8246429AB
S21400564004BF012199709CF80030DFF80CE25C433F
S2140056500EEB04010EF804304FF400744C80032463
S2140056600C718C7102EB420405EB441532240133B5
S214005670DBB201324B718D6081F8A04002708CF86D
S21400568000307DE6601C00F0A9FA00224FF0380AD0
S2140056908146DFF8E081114600F0EEF998F8003018
S2140056A0714D0AFB03F325F803904FF00109EA1841
S2140056B082F80490E37873B1E01C00F08FFA0022C1
S2140056C00446114600F0D8F998F800300AFB035358
S2140056D05C8083F8069065485E4A037899015354C7
S2140056E098F8001002EB8314C1EBC10205EBC2056B
S2140056F04A1C656388F80020D4E6601C00F06EFA49
S2140057008046E01C00F06AFA0546601D2EF01BFA83
S214005710044602460121404600F0AEF922462846DD
S214005720012100F0A9F960204FF4487CDFF82CE155
S2140057304B4A9EF8003000FB03F422F80480DFF8A2
S21400574024811119A1F810C0C1F814C04E83C1F805
S2140057505880591CC9B248431418A4F810C0C4F89D
S21400576014C06683C4F8588094241552404D981C83
S2140057708EF800002878DFF808C1444303EB4303A3
S21400578001EB41010CEB040E02EB431302EB41125A
S2140057900CF80400CEF80430CEF80820013028704B
S2140057A0EEE5601C00F01AFA8046E01C00F016FADF
S2140057B0002205461146404600F05EF900223824D5
S2140057C01146284600F058F92A48274A03784FF031
S2140057D0000E04FB03FC22F80C804FF0010802EBDD
S2140057E00C0181F806E081F8048003EB0801C9B2D9
S2140057F04C4302EB040C15539C1C047070241E4D85
S2140058008CF806E028788CF804804443DFF874C0EF
S214005810C3EBC303C1EBC1010CEB040E02EBC303E5
S21400582002EBC1020CF80400CEF80430CEF80820D3
S2140058304044B4E790F805C001358C4584BF047138
S2140058404471A8301CE500BF465D0020D825002026
S21400585040670020DC1B0020DC1C0020455D00208B
S214005860B8210020F1500000881F0020425D002073
S214005870415D0020445D0020405D0020435D002027
S214005880201A0020D0180020B9F1000F07D01BF80E
S214005890052C02EB420204EB8204CBF80840594682
S2140058A0384601F0C7FA09F10109A8370BF10C0BCD
S2140058B01BE579180AD0481E09FB00B0C07900EB3A
S2140058C0400004EB800409FB01B08460104609FB2D
S2140058D00151039201F088F831781C48394409FBDD
S2140058E0015100F0ABFF039A0137403207E5FD4255
S2140058F018BF11F8050C03911EBF00EB400004EB27
S21400590080048C6003FB052000F0B0FE039901358F
S2140059100C31FFE4F74218BF15F8053C29461CBFBA
S21400592003EB430304EB830408FB07A018BFAC603B
S21400593000F072FD01370C3500E513F8011D002953
S2140059407FF406AD3B2102F8011C01E57C1F002018
S21400595007B5012121200DF1070200F057F918B90B
S2140059609DF80720024B1A7003B05DF804FB00BFD9
S214005970206D002007B5064B8DF807001870012132
S2140059800DF10702212000F051F903B05DF804FB89
S214005990206D002007B5022101200DF1060200F05F
S2140059A035F938B9044813F051FDBDF8060003B0C8
S2140059B05DF804FB0020FAE7C5EE030007B50221F8
S2140059C0ADF806000DF10602012000F02FF90146A1
S2140059D010B1034813F03AFD03B05DF804FB00BFB6
S2140059E0E6EE030010B5FFF7D5FF0446014607486C
S2140059F013F02CFD0121064813F028FD24B9BDE85C
S214005A0010400120FFF7DABF10BD00BF16EF0300FD
S214005A1028EF030008B5044813F018FD00F016F947
S214005A202EF0ACF82EF0A7F83EEF030038B504468B
S214005A30084D094B28462B6000F03EF9002C18BF95
S214005A4021462846BDE8384008BF4FF496712EF030
S214005A509FB800BFDC260020193B030010B5044C9D
S214005A60237823B9034838F055FE0123237010BD70
S214005A70485D0020C488040073B506460D461446EB
S214005A80FFF7ECFF0E4A330AD35C8DF805608DF8FD
S214005A9004307DB1012C04D0032C09D00022012152
S214005AA001E02246022101A801F0FAFE02B070BD14
S214005AB00022F7E704212A460DEB0100F4E700BFB9
S214005AC04186040007B5064A030AD35C8DF8050034
S214005AD001A88DF8043001F017FF03B05DF804FB51
S214005AE04186040007B5064A030AD35C8DF8050014
S214005AF001A88DF8043001F033FF03B05DF804FB15
S214005B004186040007B50A4A030AD35C8DF80500EF
S214005B108DF8043000230DF1030101A88DF8033041
S214005B2001F04AFF9DF8030003B05DF804FB00BFD8
S214005B30418604002DE9F043214C85B00646884690
S214005B409146FFF78BFF23781BB901F08DFE0123EA
S214005B5023701C4A330AD35C30228DF80C300023A5
S214005B60194F8DF80D6002FB03F4395DE51901BB92
S214005B7001233B554FF0FF3304F11000134938441E
S214005B80AB606E80C5F80480C5F80C9008F07AFE0D
S214005B9004F10801042239440D4B009503A801F0D6
S214005BA039FFA96802460B4813F050FC05B0BDE863
S214005BB0F0830133102BD6D1074813F047FCF5E7E6
S214005BC0475D00204186040004270020273B030091
S214005BD0393B03004BEF030079EF030080B10278F6
S214005BE0A2F14103032B0BD840783038C0B2082806
S214005BF006D8054B134413F8413C40EA032070478F
S214005C004FF6FF70704700BF4186040008B50B468C
S214005C1042B101460448006803F040F8BDE8084079
S214005C202DF0A2BF022008BDAC67002008B50B46C9
S214005C3042B101460448006803F0B8F9BDE80840E0
S214005C402DF092BF022008BDAC670020F0B50026FC
S214005C50124F8DB0FF2300930A223346386802A9FC
S214005C602EF0EAFDC0B102AB1D4603EB800404E053
S214005C7055F8043BB34228BF5E1CAC423868E9D9ED
S214005C80296803F019FB0028F2D02D28F0D00DB0BB
S214005C90BDE8F0402DF068BF0DB0F0BDAC67002049
S214005CA028B1034B0360034B4360002383607047B7
S214005CB01900000354670020FF2307B50021044A9B
S214005CC00093083008F062FD03B05DF804FB00BFE7
S214005CD08B3B03000B4604490246086803490978D3
S214005CE008B12DF065BF7047102A00204A5D0020DD
S214005CF0F7B50C4618B12921194838F05FFD24681D
S214005D0023685E795F8830463946FFF7E3FFF0B1D7
S214005D108568E5B1A089227D3946904291BF002072
S214005D20801AA36880B294BF03469B18E27C00905A
S214005D303046A8470138032803D8DFE800F0080FEC
S214005D400B0D0024204632F04CF8204600E081205F
S214005D5003B0F0BD8024F5E79324F3E78724F1E74A
S214005D60A1EF0300F8B515460D4A044610680D4A23
S214005D700B46117850B122462DF01AFF034628B183
S214005D8000210C27C678B14201DB0020F8BD07FBD6
S214005D9001F45A681019125BAA42F7D00131F2E7F3
S214005DA0102A00204A5D002008B5034B1B6803B18B
S214005DB09847002008BD00BF0C2A00202DE9F74FA9
S214005DC004460D460026454B454F1860454B197056
S214005DD033010021F85C01360FF02EFB0C2EF7D1B4
S214005DE00C2D28BF0C254FF0000901953C4EDFF81E
S214005DF000A13D4DDFF8FC80019B4B4502DC03B063
S214005E00BDE8F08F23784FF0000B33706388738003
S214005E10A388B380A379C6F80880B371E379C8F87D
S214005E20005088F804304FF00003A768A8F8063042
S214005E30E3795B450ADC012116F8100B0FF0FCFA3B
S214005E4008F1080809F101090C34D5E74FF0000302
S214005E5038886B812880FB784FF0000C2B81BA784D
S214005E60C5F804A0002A00920CBF802240222A73A4
S214005E7079680AF10C02634513DC03EB43030AEB73
S214005E80830ABB6843B1009A4FF6FF71B2FA82F2FA
S214005E90164B520931F035FF14350BF1010B0C3758
S214005EA0C6E7B1F800E00CF1010C22F80CEC91F812
S214005EB002E00C3202F816EC91F804E00C3102F81D
S214005EC015EC11F809ECBEF1010F14BF4FF0100EDF
S214005ED04FF0110E02F814ECCDE700BF102A002098
S214005EE0D84000204A5D002014300020F15C0000FD
S214005EF0142A002094320020014B1860704700BF1F
S214005F00082A002070B5128805460E46FFF72AFFBD
S214005F10044670B102790499806814F0FBFB064BC6
S214005F201B680BB9002070BD31462846228898476A
S214005F30F8E78620F7E700BF082A002008B50EF02D
S214005F4017FB022806D0012806D0044B187840001C
S214005F50C0B208BD0120FCE70220FAE7495D002038
S214005F60014B1860704700BF042A0020034B1A78C4
S214005F701AB901221A700AF001BB7047495D002069
S214005F800022064B10B51A70054B1C682CB1FFF7A3
S214005F90D5FF2346BDE81040184710BD495D0020D8
S214005FA0042A002037B50446002832D00EF0E0FA66
S214005FB0022830D1608932F091FAE079237A0038ED
S214005FC018BF0120012B637A08BF40F008000BB110
S214005FD040F0100063890BB140F00400257CA188D6
S214005FE0A2790DB1E36873B90C4B0FF001FE21786E
S214005FF008460FF079FE31F07DFD002814BF03201F
S214006000002003B030BDCDE90035054B0FF0F0FDA4
S214006010EDE70220F5E70120F3E700BF373D040077
S2140060203A0C040008B50CF007FC014630B10448F1
S21400603013F00CFABDE808400CF0A2BF08BD00BF84
S21400604013F00300034B044A5B7C0121032013700A
S214006050FFF7ECBD406700204B5D002010B50446FE
S214006060FFF7F0FFB4F57F4F0BD100240F4B1A88D3
S21400607013449C70FEF7E8FF2046BDE81040FFF78B
S214006080D5BC4FF601739C4204D1BDE810400848C9
S2140060902DF0CBBC4FF602739C4205D1BDE81040F4
S2140060A0044B1878FFF766BC10BD00BFD45500201F
S2140060B040670020206D002010B5074C01212246C5
S2140060C00320FFF7A3FD28B92378044A003B18BF36
S2140060D00123537410BD00BF4B5D002040670020B5
S2140060E0F8B5564B564C1A884FF6FF739A4218BFAF
S2140060F003234FF0080218BF2370524B30251A7046
S21400610032225A70DA70DA7138229D705D7133254A
S2140061101A724FF400129D714B4D3626C5644B4DD6
S214006120426405654A4D012285654A4D1E71C56566
S214006130494D86184566494DC6678566484D494EA1
S2140061400567494D80F848204567202580F8785037
S21400615080F8845000F12105C0F88850434D80F83F
S2140061605420C0F88C5080F8602080F86C20C0F86E
S214006170806080F89020C0F89440C0F8B8303C4B5F
S2140061803C4CC0F8BC300223C0F898403A4C80F82B
S214006190C030C0F8A4400F24384B80F8A840C0F8A0
S2140061A0C430374B374CC0F8C8308223C0F8AC40F8
S2140061B0354C80F8CC30C0F8B0400924334B344D11
S2140061C0C0F8D030334B80F8B440C0F8D4302C7CC4
S2140061D0314B80F89C20C0F8A00080F8D820C0F88A
S2140061E0DC3044B12D4B80F8E420C0F8E03005F1F7
S2140061F01103C0F8E8304FF0000CCA798E6802EB45
S21400620042039F00443006EB830326F807C058601D
S21400621001200D349870DC701318CB71FFF798FBD3
S214006220FFF74AFFFFF78AFE012806D12B7C23B131
S214006230BDE8F84016482DF0F8BBF8BDD46C002039
S214006240216D00204C5D00205986040001002000CE
S2140062505886040002002000578604000300200031
S2140062605686040005004200040042000700300085
S214006270FDFF210012001001004042005486040079
S21400628000FF44014586040006004200D455002065
S2140062904067002002FF2001206D002001FF100152
S2140062A013B504460D482DF027FB6422C0F30F43B8
S2140062B0637083B2B3FBF2F3A0782370202201212F
S2140062C02DF098FCA078212201212DF093FC0449A2
S2140062D0201D02B0BDE810402DF05ABCD46C002042
S2140062E0E09304000B7870B583704CF61E030380B1
S2140062F04FF02013C362012380F8303080F83C3022
S214006300C3180364124B044643640223114A80F800
S2140063104830114B8263C3644063CA798D6802EBD0
S214006320420305EB830004F12C0646600B4E45F84D
S214006330236000238360531CCB71094B201DC4E9E6
S2140063400134FFF7B9FC2046BDE87040FFF7A8BF50
S214006350FDFF2100210020005A86040001000103F1
S214006360A1620000437B044A0121137000781130BB
S214006370C0B2FFF75BBC00BF565D002038B50446D0
S2140063800078054D11302A460121C0B2FFF73EFCC9
S21400639008B92B78637338BD565D0020024B53F85E
S2140063A020002DF0ECBC00BFF4320020012908B517
S2140063B006D0022907D049B92DF0D8FC002008BD28
S2140063C02DF0D7FCFAE72DF0D7FCF7E7024813F0DC
S2140063D03DF80120F3E700BF40F0030010B4054C81
S2140063E0114654F820001A46BDF804305DF8044BF8
S2140063F0FFF7DCBFF4320020002310B5044683818B
S2140064000364A0F844304830FFF756FC014BC4E95B
S214006410123410BD653D030038B504460B781A4AA1
S21400642043700D4642F82300FFF7E6FF2046FFF7CD
S214006430A5FF4FF4401323610123144A2375A2617C
S214006440134A84F82030E261124A84F82C306262E3
S214006450114A84F83830A26204F10C0222630F4A13
S21400646004F10D036263E363EA79A86802EB420372
S21400647000EB830110344C60094C40F82340094B74
S2140064808B60531CEB7138BDF4320020555D002044
S21400649008002000226D002000FF300001FF1001E0
S2140064A002010104DD63000010B47024427B0D4835
S2140064B0013A012904FB020006D0022908D059B986
S2140064C05DF8044B2DF052BC5DF8044B2DF051BC2A
S2140064D05DF8044B2DF050BC03485DF8044B12F0F9
S2140064E0B5BF00BFD01800205CF00300B0F85C30E9
S2140064F02DE9F0418B4204460E4638D0437B077C9C
S2140065008BB31C4A12789A422DD370251A4A013B47
S21400651005FB032390F80F801B7B42462DF03DFCC5
S214006520B845054601D1FF281FD13A4631462046D8
S21400653094F890302DF031FC2F4605465522122156
S2140065406078A4F85C602DF055FBFF2F03D0394629
S2140065502046FFF7A9FFFF2D09D029462046BDE8B3
S214006560F0412DF05ABCFF25DFE70746E6E7BDE819
S214006570F08100BF405D0020D0180020416882688E
S214006580C978D27849B112B10321FFF7AFBF837B38
S214006590002B0CBF01210221F7E72AB1837B002BD9
S2140065A00CBF02210121F0E7014812F04FBF00BFE7
S2140065B06DF00300037BD3B14368DA7812B18268CA
S2140065C0D278A2B91B7933B1837B002B0CBF042190
S2140065D00521FFF78BBF83681B792BB1837B002BCC
S2140065E00CBF05210421F4E7014812F02FBF7047C5
S2140065F09FF00300084A437B05211370837B53708A
S214006600C37B9370037CD370037B137100780E30CA
S214006610C0B2FFF70BBB00BF575D002038B504467D
S21400662000780C4D0E302A460521C0B2FFF7EEFA70
S21400663020B1BDE83840084812F008BF2B786373D5
S2140066406B78A373AB78E373EB7823742B7923739F
S21400665038BD00BF575D0020DBF00300024B53F847
S21400666020002DF024BC00BF1C330020F8B50446E3
S2140066700B78424A43700D4642F82300404E2DF0F8
S21400668034FCFFF7CBFF6268A3683E483E49D664F9
S2140066901165D4655065C3E91410DE64DC654FF0FF
S2140066A0987302266361012304F10C01E161374906
S2140066B01032216204F10D01A16235492376E162B0
S2140066C004F10E016163334984F82430A16304F1B8
S2140066D00F012164304984F83030616404F1100100
S2140066E0E1642E4984F83C3084F84830216584F80B
S2140066F05460A265E879A96800EB400201EB8207C6
S21400670004F1140CC7F804C04FF4817C244F41F800
S2140067102270C218D2B202EB420241F822C001EB4C
S214006720820700227A601F4A84F8703022661E4A6A
S21400673084F88830A2661D4A1D4BE2661D4AC4F8DE
S2140067408C3062671C4A8319A26704F15C02C4F8A5
S2140067508020DBB2194A03EB4303C4F8842084F894
S214006760646084F87C6001EB830260345460144AF1
S214006770033041F82320E871F8BD00BF1C33002029
S2140067807D650000713E0300B56500000100200134
S2140067900200100103003001040030010500210151
S2140067A001FC01064A0021005C860400510010002E
S2140067B05E8604005F860400550021006F00180006
S2140067C01200010470B50D460646144613460A46E6
S2140067D00146164812F03AFE25B92046BDE870403C
S2140067E0FFF73CBC072D05D121463046BDE870407A
S2140067F000F0E4BA4FF601439D4205D121463046EB
S214006800BDE87040FFF72ABF062D05D12146304669
S214006810BDE8704000F0A2B8B5F5817F05D12146ED
S2140068203046BDE87040FFF7B9BD70BD0AF1030001
S2140068300148FFF761BB00BFC56700004FF4C013F7
S21400684030B5036001230371074B8C688360CA79F7
S21400685002EB420304EB83056860044844F8230017
S214006860531CCB7130BD00BF6086040004000101DC
S21400687038B50024044D55F8040B08B12DF045FB3F
S21400688001340A2CF7D138BD44330020042908B55A
S2140068900AD172B16BB113781BB92DF061FB0020E1
S2140068A008BD2DF053FBFAE7034812F0CFFD012098
S2140068B0F6E70320F4E700BF3DF1030010B4054CF3
S2140068C0114654F820001A46BDF804305DF8044B13
S2140068D0FFF7DCBF443300200229024608B50ED07D
S2140068E004D839B910462DF03BFB06E04029F9D014
S2140068F0412907D110462DF029FB002008BD2DF0B8
S21400690039FBFAE7024812F0A1FD0120F6E700BFC6
S2140069105DF1030010B4054C114654F820001A46E9
S214006920BDF804305DF8044BFFF7D6BF44330020B3
S214006930426B094B52791A7082785A70C2789A70F4
S214006940826B12B190F83C20DA700078042109308E
S214006950014AC0B2FFF76AB95C5D0020024B53F8EB
S21400696020002DF023BB00BF4433002038B504467A
S2140069700078084D09302A460421C0B2FFF746F9D0
S21400698030B96B78A370AB78E370EB7884F83C3062
S21400699038BD00BF5C5D002038B504460078114D58
S2140069A009302A460421C0B2FFF730F9C8B9A378E7
S2140069B02A78022B0CD004D863B920462DF0D0FAE2
S2140069C001E0FF2B0AD02046BDE838402DF09DBAE6
S2140069D0002AF2D120462DF0B9FAF4E7002AF9D1C0
S2140069E0EBE738BD5C5D0020F8B504460B78284A16
S2140069F00D4642F823004370FFF7B8FF636B254A45
S214006A005C631A632046FFF7C7FF20462DF07DFA29
S214006A104FF4801363600123626BA66B0532E2605D
S214006A201D4A23722261A21C2375A26166B11B4A0D
S214006A3084F82030E261E21C6262194A84F82C3045
S214006A4004F13C03A26223630627EA79A96802EBF5
S214006A504203002E21F8237001EB83000CBF0223B3
S214006A600423C370012383700E4B04348360531CCD
S214006A704460DBB20C4C03EB430341F8234001EBCC
S214006A80830000234360094B02328360EA71F8BD3D
S214006A9044330020893F03000340300101FF3001EA
S214006AA002FF10011569000008000100BD68000023
S214006AB028B1034B1B78834234BF00200120704767
S214006AC0425D002008B5427901461046FFF7F0FF08
S214006AD0A8B1CB780A48013A042B00EB82100ED8F6
S214006AE0012B08D81BB9BDE808402DF02FBABDE829
S214006AF008402DF035BABDE808402DF03BBA08BD79
S214006B00DC1B002008B5427901461046FFF7D0FF8F
S214006B10A8B1CB780A48013A042B00EB82100ED8B5
S214006B20012B08D81BB9BDE808402DF019BABDE8FE
S214006B3008402DF00BBABDE808402DF01BBA08BD82
S214006B40DC1B002010B586B00446FFF7F7F90128D5
S214006B5030D1E278042A2DD8DFE802F0133234036D
S214006B60030061790846FFF7A3FF58B31648032AC7
S214006B7000EB811050F80C3C58791DD1003818BF36
S214006B80012063784FF480728DF804304FF48273DE
S214006B90ADF806300623ADF8083001238DF80B302B
S214006BA000238DF80A0001A8CDE903238DF81430E0
S214006BB0FFF7F8F906B010BDB0FA80F04009E0E73C
S214006BC00020DEE70220DCE7DC1B002010B586B0E4
S214006BD00446FFF7B3F9012830D1E278042A2DD80D
S214006BE0DFE802F013133203030061790846FFF76B
S214006BF05FFF48B31548032A00EB811050F80C3CA1
S214006C005B791DD11A1E18BF012263788DF80A2001
S214006C108DF804304FF48273ADF806300623ADF8D5
S214006C20083001234FF480728DF80B30002301A842
S214006C30CDE903238DF81430FFF7B4F906B010BD84
S214006C40B3FA83F25209E0E70222DEE7DC1B0020FB
S214006C5010B586B00446FFF771F9012812D16378A3
S214006C60094A8DF804304FF48273ADF806304FF4BD
S214006C708073CDE90223002301A804938DF8143015
S214006C80FFF790F906B010BD0800070110B586B0F2
S214006C900446FFF753F9012820D16278104B8DF88F
S214006CA004204FF4827294F8A01094F8A100597052
S214006CB01870ADF8062004934FF480720223094939
S214006CC001A88DF81430CDE90212FFF76BF994F89D
S214006CD0A130013B18BF012384F8A13006B010BDD7
S214006CE0605D00200800050110B58378044603B3F4
S214006CF00379022B0AD142791046FFF7D9FE28B154
S214006D000C48013A00EB82102DF034F9A379022BDF
S214006D1002D12046FFF716FF2046FFF7B7FF0223F3
S214006D206078A4F86C305522BDE8104012212CF093
S214006D3061BF10BDDC1B00204388094A0821138070
S214006D408388538083681B8A938090F8A030937161
S214006D508379D37100780430C0B2FEF767BF00BFF6
S214006D605656002038B50D4604460178114812F0F4
S214006D706DFB4FF602739D420ED10F4B1B782BB95D
S214006D8063712046BDE83840FFF7D6BF62790AB186
S214006D909342F6D20123F3E7B5F57F4FF1D12046B3
S214006DA02DF081F9A378022B0CBF01220022A368E4
S214006DB09A70E6E779F10300425D0020024B53F833
S214006DC02000FFF7CFBF00BF6C33002038B5044665
S214006DD00078144D04302A460821C0B2FEF716FF8C
S214006DE020B1BDE83840104812F030BB2B886380D5
S214006DF06B88E978A380AA88A3681A82AB7984F89E
S214006E00A030EB79A371094B1B780BB9637138BDC1
S214006E1009B19942FBD9064812F018FB23780133D2
S214006E20F4E700BF5656002093F10300425D0020B1
S214006E30BCF10300F8B504460B78474A0D4642F805
S214006E4023004370FFF7C2FFA268444BD465D364A7
S214006E50434B02265365434BA11C13654FF4401366
S214006E60E36001236161E1623F49103221632265DC
S214006E70211D3E4AA1633E483E49626504F1A002D8
S214006E80A061E163E265E01C611D3B4A206261642B
S214006E903A483B492266A21D2374237784F828309B
S214006EA084F8343084F84030A16484F84C6084F868
S214006EB0583084F864306062A266E879AA6800EB0D
S214006EC0400102EB810704F10C0CC7F804C04FF038
S214006ED0060C2C4F42F82170C118C9B201EB4101D3
S214006EE042F821C002EB810700217960264F84F822
S214006EF080302767254F84F89830A767244F254BA6
S214006F00E767254F84F8746084F88C60C4F89C307A
S214006F1004F16C06831CC4F88470C4F890601F4F9C
S214006F201F4EDBB203EB4303C4F89460C4F88870CA
S214006F3002EB83067034746008261A4C42F823402D
S214006F40C31CDBB203EB430302EB8304043042F8BA
S214006F5023606160E871F8BD6C330020FD3F0300DC
S214006F6047400300E96C000001FF300104FF2001E8
S214006F701000300102FF200105FF300100FF300144
S214006F8003FF2101070001084A0021006286040071
S214006F905100100064860400658604005500210038
S214006FA06F0018001200010400239B6AB3F5804F9F
S214006FB003D21968064A914203D000230370836007
S214006FC07047012202709A689B694260F7E700BF2B
S214006FD007B0CD5E024B034A1A602EF0ECBB00BF32
S214006FE00000002002020FF073B53F4B04461A78EB
S214006FF01AB102221A7002B070BDCDE90022002834
S214007000F9D001261E7037F0E7FA384D384B186075
S21400701016F0FEFF2B785BB902F0F2F940B935485E
S2140070200823354A3549006801F038FE00B92E704D
S214007030334B5A68E260334A9A601A6E22605A6E80
S2140070406260D3F87021A2601B6E5C042CD52E4AB9
S214007050D368D807FCD42D4B1A68531C29D04FF49C
S214007060801393402A4A13660423294C4FF080422B
S21400707023664FF480632366102323664FF4005381
S2140070806846236601A9226663662DF024F8009BF5
S2140070902366019B63662B78002BACD0164B1A68D0
S2140070A022665B686366A6E71A4AD368D907FCD4EB
S2140070B0D1E7194B1B78002BD6D1184B5A68144BC6
S2140070C012B94FF480121A66154A526812B94FF474
S2140070D000121A66134B5B68002BC5D14FF4800272
S2140070E00B4B1A66C0E700BF635D0020645D00209E
S2140070F0A4330020AC670020A833002000710800ED
S2140071000080004455CEAC000000044078670020A4
S2140071100090004400000450625D0020008005508E
S21400712000C005500000065038B5224D04462B78A6
S214007130012B02D001232B7038BD0028FCD02CF088
S214007140EFFF013009D02CF0EBFF40F2011398421C
S21400715003D0194AD368DB07FCD42268174B1A669B
S21400716062685A66A268C3F87021E268D40744BF12
S21400717000229A60124B1A68013213D1114A127813
S21400718082B911494968C80748BF1A600F4A526851
S214007190D10744BF01221A600D4A5268D20744BF85
S2140071A002221A6016F03CFF0A4B186837F00FFAF6
S2140071B00023C0E7635D0020000004400080004418
S2140071C078670020625D00200080055000C00550F2
S2140071D000000650A433002070B50024A36AB3F55F
S2140071E0804F23D21A68134B9A421FD1124E33781F
S2140071F013F0FD0518D14FF480341048FFF7F4FE65
S214007200032004F0CBF90E4B0320DC6004F0AAF94F
S2140072100C4B1C61AB6ADB69984704460748FFF7CE
S21400722083FF0CB901233370204670BD4FF4817480
S214007230FAE700BF07B0CD5E625D00209433002001
S21400724000A000440090004413B5204B1B7803B9FF
S214007250FEE700231E4CCDE900336A4608231D498D
S214007260206801F01BFDF8B91B4AD2F84031D2F86D
S21400727040211F2B4FF0010311D9203A9340019A69
S2140072801A43019208236A461249206801F08EFECE
S214007290124B134A1A602EF08EFA02B010BD9340BD
S2140072A0009A1A430092EDE72D28F1D10A4AD2F847
S2140072B04031D2F840211F2B4FF0010385BF203A02
S2140072C093409340019398BF0093DBE7635D0020F3
S2140072D0AC67002000710800008000440000002019
S2140072E00B020FF038B50025AB6A0446B3F5804FA5
S2140072F010D21B6BB3F5804F0CD20748FFF774FE15
S214007300AB6A20461B6B5B689847BDE8384002486E
S214007310FFF70ABF38BD00BFB033002013B5002406
S214007320A36A0190B3F5804F13D21B6BB3F5804F61
S2140073300FD20948FFF758FEA36A01211B6B01A86C
S2140073409B69984704460448FFF7EEFE204602B0C5
S21400735010BD4FF48174F9E7B033002070B50026F5
S214007360B36A0446B3F5804F0D4612D21B6BB3F5D5
S214007370804F0ED20848FFF737FEB36A20461B6BD5
S21400738029469B69984704460348FFF7CDFE2046EA
S21400739070BD4FF48174FAE7B033002070B5002654
S2140073A0B36A0446B3F5804F0D4612D21B6BB3F595
S2140073B0804F0ED20848FFF717FEB36A20461B6BB5
S2140073C02946DB69984704460348FFF7ADFE20468A
S2140073D070BD4FF48174FAE7B0330020F8B500278B
S2140073E0BB6A0446B3F5804F0D46164611D21B6B9A
S2140073F07BB10948FFF7F8FDBB6A20461B6B324697
S21400740029465B6A984704460348FFF78DFE2046E8
S214007410F8BD4FF40174FAE7B033002070B50026CB
S214007420B36A0446B3F5804F0D4612D21B6BB3F514
S214007430804F0ED20848FFF7D7FDB36A20461B6B75
S21400744029469B6A984704460348FFF76DFE204688
S21400745070BD4FF40174FAE7B0330020F0B5002792
S214007460BB6A0446B3F5804F0D461646ADF5337D30
S21400747020D21B6BB3F5804F1CD21048FFF7B4FD2B
S214007480BB6A20461B6B40F2C1225B6A01A9984783
S214007490044630B10948FFF747FE20460DF5337D18
S2140074A0F0BD836A32461B6B2946DB6A01A8984703
S2140074B00446EFE74FF40174EFE700BFB033002057
S2140074C010B50024A36AB3F5804F10D21B6BB3F53A
S2140074D0804F0CD20748FFF787FDA36A1B6B1B6B18
S2140074E0984704460348FFF71FFE204610BD0124B8
S2140074F0FBE700BFB0330020F0B58FB0044601A80C
S2140075000E461546FFF7EEFE9DF80C30012B12D105
S214007510B5F5402F27D8B4F5402F24D86319B3F516
S214007520402F20D821462A46304613F031FA002450
S21400753020460FB0F0BD0027BB6AB3F5804F15D2CA
S2140075401B6BB3F5804F11D20A48FFF74DFDBB6A9F
S2140075502A461B6B314620465B6B98470446054817
S214007560FFF7E2FDE4E740F20244E1E740F20114EF
S214007570DEE700BFB0330020F0B58FB0044601A8A8
S2140075800E461546FFF7AEFE9DF80C30012B1FD1B8
S214007590B5F5402F06D8B4F5402F03D86319B3F5D8
S2140075A0402F13D940F2024420460FB0F0BDE258F7
S2140075B0013225D104339D42F9D82A463146204669
S2140075C02CF0DEFD0028EDD00024EDE70023F2E7E6
S2140075D00027BB6AB3F5804F15D21B6BB3F5804FFF
S2140075E011D20A48FFF700FDBB6A2A461B6B3146DC
S2140075F020469B6B984704460448FFF795FDD3E763
S21400760040F20344D0E740F20114CDE7B033002047
S21400761070B58EB0044601A80D46FFF763FE9DF8D0
S2140076200C30012B22D144EA0503C3F30C03002BD4
S21400763033D1B5F5402F04D940F2024420460EB0AF
S21400764070BDB4F5402FF7D82544B5F5402FF3D8D4
S214007650204604F500542CF08CFDAC4202D00028E5
S214007660F6D1E9E70028E7D00024E7E70026B36A6A
S214007670B3F5804F14D21B6BB3F5804F10D20A4877
S214007680FFF7B2FCB36A29461B6B2046DB6B9847B4
S21400769004460548FFF748FDD0E740F20444CDE72E
S2140076A040F20114CAE700BFB0330020BFF34F8F8B
S2140076B00549064BCA6802F4E0621343CB60BFF389
S2140076C04F8F00BFFDE700BF00ED00E00400FA05A5
S2140076D070B5D0B1C9B10E4E431E013913F8014F33
S2140076E02046325D02F00302012A11F8012F08BF7E
S2140076F004F12000B55C05F00305012D08BF20321B
S214007700801A01D1002CE9D170BD0120FCE700BF32
S214007710C1AD04000348044A0449121A92102CF022
S2140077207BBD00BF34410000D0420000A8640020AA
S21400773008B5154B83F30A8800F030F8FFF7EAFF28
S214007740124B13498B4212D30020124B12498B4224
S21400775018D3FDF7C7FA186850F82240586840F862
S2140077602240013298688242F5D30C33EAE70022C1
S214007770F8E71C6844F8220001325C68A242F8D39D
S2140077800833E4E70022F8E70800002080D204006F
S2140077908CD204008CD204008CD20400124B134A04
S2140077A070B59A60D3F88820114D42F47002C3F881
S2140077B088206FF0010205F50054226641F2FF7240
S2140077C062660222C3F8D020BFF34F8FBFF36F8FDD
S2140077D04FF44036032003F0E1FE0320E66003F09A
S2140077E0C1FE2E6170BD00BF00ED00E0004000004D
S2140077F000800044014B1860704700BF806700207F
S214007800054B1860054B1B6F03F00703032B01D1D4
S21400781034F094BF704700BF886700200080005097
S2140078202DE9F04104464FF001080C250D4E0CB929
S214007830BDE8F08194FAA4F0B0FA80F00F2808FAB8
S21400784000F2C8BF103824EA0204CABF05FB006273
S21400785005FB0062B4325768002FE8D09168C0B2CA
S214007860B847E4E7C033002008B50C4836F052FFAE
S214007870192003F085FE28B1192003F08FFE192089
S21400788003F070FE1A2003F07BFE28B11A2003F0E6
S21400789085FE1A2003F066FE002008BDC48804009A
S2140078A02DE9F0410E461746054618B30F2923D892
S2140078B00378DBB1013BDBB2022B19D8104AD35C4C
S2140078C06A78D340DB0717D50E4BD3F81043ACB914
S2140078D036F082FE80463A462846314602F0BEFB27
S2140078E0404636F074FE2046BDE8F0817F23E7E789
S2140078F00023E5E72224F6E72124F4E70224F2E752
S214007900B886040000C0035010B5044610B30378D0
S214007910E3B1013BDBB2022B1AD8104AD35C627883
S214007920D340DB0718D536F057FE0122617823785E
S2140079308A4030214B4341F2100103F1A04303F586
S21400794070335A5036F043FE002010BD7F23E6E722
S2140079500023E4E72220F8E72120F6E7B8860400B3
S21400796010B5044610B30378E3B1013BDBB2022B3B
S2140079701AD8104AD35C6278D340DB0718D536F0A5
S2140079802BFE0122617823788A4030214B4342F255
S214007990100103F1A04303F570335A5036F017FE7A
S2140079A0002010BD7F23E6E70023E4E72220F8E767
S2140079B02120F6E7B886040038B50D46044618B30D
S2140079C011B30378E3B1013BDBB2022B1AD8104A9D
S2140079D0D35C6278D340DB0718D536F0FDFD302245
S2140079E02378534303F1A04303F570335B69627851
S2140079F0D34003F001032B7036F0E9FD002038BDBC
S214007A007F23E6E70023E4E72220F8E72120F6E7D5
S214007A10B88604002DE9F0410D4616469846044601
S214007A2000284FD000294DD00178002940D04B1EA9
S214007A30DBB2022B3ED8254AD25C6378DA40D20706
S214007A4001D4FF2940D1022E01D9042E3CD136F0B4
S214007A50C3FD23780746FF2B05D03246204629680B
S214007A6002F042FB28602B68013309D12378FF2BF4
S214007A7006D1174B6078D3F824142DF00CF9286043
S214007A8029684B1C18D00C23124A03FB0122069BC4
S214007A90C2F8048093602378FF2B04D001230E4A9B
S214007AA08B40C2F82434384636F091FD002007E0BB
S214007AB07F22C2E70022C0E7384636F088FD2D2038
S214007AC0BDE8F0812220FBE72120F9E7B886040014
S214007AD000C00350C033002000D0035008B502F0A9
S214007AE0B3FA044B00F05530C3F82004BDE8084054
S214007AF0FFF796BE00E0035008B502F0A5FA044B67
S214007B0000F0AA30C3F82004BDE80840FFF788BE9E
S214007B1000E003502DE9F04F144605460E469B46FE
S214007B20C36B87B001225B6902A960689847EB6B5C
S214007B3001225B6903A93046984702A82CF06BFF28
S214007B40074648B10023A37563754FF0FF33A36063
S214007B50002007B0BDE8F08F03A82CF069FF0123D2
S214007B60A375237E04EBC303DE611F846368B34200
S214007B700ED1206003A82CF07DFF4FF0FF33207558
S214007B80A360237D043B022B26D80023A375DFE7E2
S214007B9023681A1A53425341A37503A82CF06AFFB0
S214007BA0237D834218BFA77503A82CF045FF074620
S214007BB002A82CF041FF874218BF002303A818BF75
S214007BC0A3752CF041FF074602A82CF03DFF874224
S214007BD01CBF0023A375D4E703A82CF02DFF80B1AB
S214007BE0EB6B022230465B6904A9984704A82CF088
S214007BF032FF0346207D032839D8DFE800F0383806
S214007C00040903A8F3E7CC22237E04EBC3031A84FB
S214007C1001F06EFC109B187003A8277E2CF000FF66
S214007C2004EBC70787F82200237E03A804EBC303F0
S214007C30B3F8209093F822702CF0FEFE804603A83E
S214007C402CF002FF8246B8F1000F15D0EB6B022233
S214007C5030465B6904A9984704A82CF0C1FE6075FD
S214007C60637D6BB90023A3754FF0000838E0227ED1
S214007C7004EBC2021384CBE703A82CF09CFEEEE7CD
S214007C8094F81680B8F1000FEED0B9F1000F09D1C4
S214007C90DFB10123E375637E002B4FD1012F42D164
S214007CA0677614E06B6C06EB0A015A4286EA01001E
S214007CB010421CBF0022A2755A1E0A409B1A994504
S214007CC0D0D8A37D002BE3D1CEE7E37D43B94FF0B8
S214007CD000084B465246314628462CF0E7FBA0608B
S214007CE0A27D12B123694B4423611A49237E097889
S214007CF099422AD901332376BBF1000F27D032B33D
S214007D00E37D23B3B8F1000F21D1032F1FD0A16864
S214007D104B1C1CD0109B2246009328460123FFF7DD
S214007D20F9FEA07513E095F8343063B9EB6A0133B9
S214007D30CFD1032FCDD10123A376C8E7012FCFD013
S214007D40032FC4D1F7E79846C3E70023A375A07DA9
S214007D50FFE600BFDC8604002DE9F04F0E4698468D
S214007D6000238BB004464FF0FF31104617468DF8BF
S214007D70133001F0A7FBB6F5801F20D2314605AAC6
S214007D8004F108002CF099FD451C014603D1237C24
S214007D90BBB92D2010E0384601F094FB012239468D
S214007DA020460DF113032CF0D3FB0028EFD09DF8EE
S214007DB0133088F8003000200BB0BDE8F08FB01C00
S214007DC0E5D1E56A691C36D12046616A2CF0B4FA22
S214007DD00546B31C18BF0123DFF8CC900193636AF5
S214007DE0626C0293236805A902FB053AE36B052241
S214007DF05B695046984705A82CF0A8FE2CF0CBFEF1
S214007E0050462CF0D3FE4FF0000B824601464B1C2A
S214007E1005D0636C81EA0A025B42134211D0294600
S214007E2020462CF089FA029BAB422CD0BBF1000F07
S214007E302CD10546D3E72368ED1A636CB5FBF3F542
S214007E40C7E7484601F03EFB0DF1130349462046BE
S214007E50019A2CF07DFB034690B1B21C03D0D9F8F2
S214007E600020B2420CD19DF8132003930D4B88F8E6
S214007E70002049461A68384612F08AFD039B9B4646
S214007E80D9F80810C3E7BBF1000F82D0B6F5801F03
S214007E9091D2314698F800307A6804F1080001F073
S214007EA03FFA88E7D88604009C3B00202DE9F34182
S214007EB00446174698460E46184D816AE36A8B427A
S214007EC001D04B1C02D102B0BDE8F081284601F07B
S214007ED0F9FA0122294620460DF107032CF038FB5B
S214007EE038B14346294620469DF80720B847002863
S214007EF0E9D0A9684A1C04D1696820462CF0A9FA82
S214007F000146012EDAD16B6881EA0302636C5B429C
S214007F101A4218BF4FF0FF31D0E700BF703B002079
S214007F202DE9F04F4FF0FF334FF6FF720025044661
S214007F3000F10806C0E909238BB0C3620562056339
S214007F40304688462CF08AFC20462CF0C5F960BBEB
S214007F50204641462CF040FA20462CF0BDF960BB86
S214007F605E200BB0BDE8F08F2368E26B606C57694B
S214007F7000FB0530052205A9B84705A82CF0E6FD4C
S214007F80012807460CD1294620462CF0F6F9012F89
S214007F90024600D10132294620462CF0BCF903E007
S214007FA02CF0FEFD0028EED10135E3699D42DBD3BF
S214007FB020462CF091F90028CAD000254FF0FF3952
S214007FC04FF6FF73CA46A846C4E90853E3699845C6
S214007FD00AD3A5EB0905012D2CD84FF6FF72636A6C
S214007FE093423CD16720BCE72368E26B606C57691C
S214007FF000FB0830052205A9B84705A82CF0A6FD09
S214008000834605A82CF079FD074658462CF0C3FD9C
S21400801068B1574538BFC4F82480B94528BFB9466B
S214008020BD4238BF3D46BA46236A0133236208F193
S2140080300108CBE74FF6FF7300256362E3699D42B4
S214008040CBD2676C2068E36B052207FB05005B69F3
S21400805005A9984705A82CF050FD0135EEE7E26B20
S214008060676C2068694607FB030055690522A84728
S21400807068462CF042FD626A2368606C4B4D00FB3C
S21400808002302CF093FD4FF0FF33A062E3622A46E5
S2140080906FF00101204605ABFFF75EFE002846D1D3
S2140080A0AD6829462046E5622CF0F2F8206320B938
S2140080B02046E16A2CF0CDF9E062294620462CF0F5
S2140080C0C8F90546A36A9D4233D120462CF0B3F882
S2140080D000278046B946E36999453CD3B84559D947
S2140080E02046616A2CF028F90026054604F1400A6D
S2140080F0B74212D8626C2368694602FB0539E36B07
S21400810005225B694846984768462CF0F6FC5346BD
S21400811002464946E06B2CF04BFD294620462CF0E3
S2140081200BF90136B0450546E2D1642019E7A56A89
S214008130B7E7294620462CF0ABF8236B29460344C4
S2140081400746236320462CF084F90546002FB9D154
S214008150C4E90B07B6E7636C2568052203FB0955DF
S214008160E36B05A95B692846984705A82CF0EEFC4A
S2140081702CF011FD58B128462CF018FD014620467B
S2140081802CF086F8636C143B984208BF013709F15F
S2140081900109A0E730462CF061FB00232046194673
S2140081A0034AFFF783FE0020DBE600BFC83B002043
S2140081B03F4503002DE9F041036B9046826B07684C
S2140081C09A4288BF8363426C436A90B002FB03778F
S2140081D0C36B0E46052201A95B69044638469847DC
S2140081E001A82CF0B3FC01280146307057D0656C0E
S2140081F0E26B2368606AD2F814C005FB00300522E3
S21400820006A9E04706A82CF0A1FC01284FF00005BF
S21400821023D0D4E90A3201219342CDE90B458DF8EB
S21400822034800E958DF83C102AD1194620462CF045
S21400823010F9236B626C14339B1AE06223630C9B69
S21400824053B99DF83C303BB1626A616C2368E06BC1
S21400825001FB02312CF032FC0C9DE36B05225B69BE
S21400826001A93846984701A82CF070FC30702846C3
S214008270236BA26B9A4288BFA36310B0BDE8F0815F
S214008280237C33B91C490BAA04F1080001F096F8C8
S214008290D5E72046194A0BABFFF708FECFE7237C4D
S2140082A023BB2246164904F1080001F087F8616AEC
S2140082B020462CF062F8616A421C20462CF02BF80F
S2140082C0054620B9236B626C1344143B2363204697
S2140082D0A16A2CF0BEF82368A062C01A636CB0FBDB
S2140082E0F3F0606220462CF0F7F8B6E7002320464D
S2140082F0044AFFF7DBFDDAE7598A0000D58900005B
S214008300D94503007545030073B50D46D11E4A4294
S2140083101C461B7E4A419A4226D129682368994208
S21400832022D3636899421FD8114E0DF107033246D7
S214008330FFF712FDC0B972686B689A4214D19DF8B7
S2140083400730DA1E53425341227E93420CD16369B2
S21400835001336361D4E90323934205D22968A268F6
S21400836042F8231001332361012002B070BD00BF24
S214008370C83B00202DE9F04F9B4689B09DF8483059
S2140083809046514A0193136907465B450D46C0F077
S2140083909580D94653680093B9F1000F7BD0FB6BEC
S2140083A001225B6905A90098984705A82CF040FBB8
S2140083B0454B1B68984240F0848005A82CF044FB8F
S2140083C00428064615D105A82CF045FB009B04465C
S2140083D01E44019B002B3ED1804512D91C46A8EBBB
S2140083E00008384600992CF034F8A9EB04090090F0
S2140083F0D2E7FB6B02225B69009806A9984706A89D
S214008400E2E7A0EB08045C4528BF5C46032C464424
S214008410ABEB040B1DD9FB6B294630465B69A20803
S214008420984724F0030304F0030A1E441D44DDF8B5
S2140084300480BAF1000FD4D0FB6B012206A93046A7
S2140084405B6998475246284606A912F0A1FA554499
S214008450C7E7A246EBE7824600F0030302932B1819
S21400846003930644039BA6EB0A00A3EB0A05029BB4
S2140084709A4514D1BAF1000FB3D0FB6B012206A9BE
S2140084805B6998475246284606A912F03DFC00282C
S214008490DDD04FF03609484609B0BDE8F08FFB6BDB
S2140084A0012206A95B6998470422284606A912F00D
S2140084B02BFC0028EDD1AAF1040AD3E74FF063099C
S2140084C0E9E74FF06F09E6E7F43B00202DE9F041BD
S2140084D00F4616469846044688B060B390F8345067
S2140084E0FDB101212BF0EDFE00210E9BCDE905111B
S2140084F0CDE902379DF83C30CDF804808DF81C306D
S214008500237C04968BB90D4901AA04F1080000F0FB
S21400851055FFDDE90553E06B002E08BF1D462CF025
S21400852069F8284608B0BDE8F0812046044A01AB49
S214008530FFF7BCFCEDE70546F3E700BFA3450300E5
S214008540098300007FB590F84260044601920DF161
S2140085500B030A46304611492CF054F8012E054606
S214008560E36B17D132465B6903A998479DF80B1059
S214008570039B019A59B19BB243EA02430122284663
S2140085800393E36B03A99B69984704B070BD62F33D
S2140085900F03F3E701229B6901A9F5E7F43B0020EE
S2140085A02DE9F04F99B00E460D920A69416C0B9377
S2140085B01439D31DB3FBF1F3013302EBC302036B93
S2140085C004469342C0F001820023DFF80494089327
S2140085D0E36A48461946059300F074FFD6E9033768
S2140085E007930B9B022B4DD1CC2F40F0D7810D9BD0
S2140085F03BB1314620462CF05BF8656C14900120A8
S21400860044E00120079B656C1B68149300F0010092
S21400861000280CBF04230823782F0E9349D8059A08
S2140086206B1E1340ED1A3B1D9D423CD2002F3DD0E1
S214008630082D3ED80023042506934FF0040A33681D
S21400864006990B98C9F80030C9F810702CF016FA85
S2140086504FEA9A030F93059B89F8140003930023AF
S21400866009930C9304930A93616C039B4A1E1A4069
S2140086708B1A27B35544AB4223D8236B5B1A13449B
S21400868023632FE1782F656CB9D8F07D0D9B002B06
S214008690BCD0E36B01225B69706816A9984716A8E0
S2140086A02CF0CAF9B4E700250695C6E70425069718
S2140086B0C3E7012300254FF0080A0693BFE753459A
S2140086C0DBD3A3EB0A029742039BB84628BF90462B
S2140086D09742534428D90122D9F8101089F8172058
S2140086E08F4226D10399C9F80410049299F81720EE
S2140086F00AB399F818100398CA1C09EBC202506016
S21400870004980131A2F80880907289F81810B8F120
S214008710000F07D00B9A022A40F08180099A72B1A6
S214008720012209929B46ABE0049A002A18BF032256
S214008730DBE70222D9E7039AC9F80420E7E70C9A98
S2140087404244032AEED9E26B1846956914A9012221
S2140087500993A847099B05460028E1D03D2D40F027
S2140087601E8104F1080303932368059A606CA2EB4C
S214008770030ABAFBF0FA00FB0A302CF017FAE16A9B
S214008780804620462BF065FEA26A824200F00F81EA
S214008790626CD9F80830511E0B40216B2768891A85
S2140087A00B442363089BE062DF1BB7FBF2F7BA4576
S2140087B040F0FA80059BB3EB080A12D0E36B4FEA51
S2140087C09A0241469B6998478346E36A059A534452
S2140087D0E362236B03989B1A434423632CF03EF812
S2140087E0DA462368616CE06B01FB07312CF053F925
S2140087F020462BF071FD20462BF06EFE2063BAF16A
S214008800000F00F0D4803269616CD31D1439B3FBBD
S214008810F1F3013302EBC3029042A5D2BFE00D9AFA
S214008820002A77D1B8F1030F4FEA98026ED9E16BB0
S21400883018468D6907991093A847109B0546C0B93E
S21400884018F0030515D0079A28F0030B02EB0B016E
S2140088509B444FF0FF3215A815922A46109312F04B
S21400886097F8E26B5846956915A90122A847054670
S214008870109B9B46079A42440792002D40F08B803F
S214008880049B16A80193069B009399F81420434670
S214008890316800F0CDFDE36B0F9A9B69039816A92B
S2140088A09847039A051E089B18BF1346089343462D
S2140088B05246204603992BF0F9FD236B08F103027C
S2140088C0A3EB0A0322F003029B1AC9F808002363ED
S2140088D0002D7FF443AF0C9BA7EB080743440C9393
S2140088E0CDF80CB0204603992BF0B3FD002503907D
S2140088F0002F7FF4B9AE364A3168936804F1080059
S214008900E36252680B9B00F00BFD49E09B46454630
S21400891007999EE79B4606F120021092F27D70684A
S214008920A2B1002296F818C00A99D5B2AC4511D962
S214008930109D02F1010E35F832508D4228D90E985E
S21400894006EBC2020144D069084403E00E9A0A9975
S2140089500A441044E26B15A9556901221193A847F1
S214008960159A0A9B1392E26B0433956958460122C6
S21400897013A90A93A847119B054603EB0802A2EB2E
S2140089800B02042A7FF679AF28B90BF1040BC5E772
S2140089907246491BC9E7CDF820B088E770252F46F8
S2140089A0384619B0BDE8F08F4FF0000A19E7326973
S2140089B0616CD31D1439B3FBF1F3013302EBC30230
S2140089C0236B9342BFF404AEE9E71C27E8E700BF39
S2140089D09C3B0020032A2DE9F34106460D46174628
S2140089E01C4606D1237A012B23D0012002B0BDE815
S2140089F0F081DFF86080096842460DF10703FFF753
S214008A00ABF960600028EDD19DF80720237A032A91
S214008A10E8D0D8F804106A689142E3D1012B29699E
S214008A20D4F80CC007D172690CEB0103934202D94B
S214008A302074207CDAE708316144E1603B4601227D
S214008A4029463046FFF7ACFD60600028CAD00020FB
S214008A50CCE700BFC83B00202DE9F341089C032A61
S214008A601746266806D1237A012B24D0012002B0AF
S214008A70BDE8F081DFF89080304642460DF10703EE
S214008A80FFF76AF960600028EDD12568D8F8040081
S214008A90A96AD5F844C04840CCF100031840227AB1
S214008AA0E1D1012A09D1E268D8F81030134472697E
S214008AB0934202D92074207CD9E72868EB6A1B1AF7
S214008AC0081AB3FBFCF3B0FBFCF083420BD1706CCE
S214008AD0F36A421E1340326B121A1344284633635D
S214008AE02BF0B7FCE862D8F81020E368083213448D
S214008AF0E36001223B4604492068FFF751FD6060B1
S214008B000028B0D00020B2E7C83B00202DE9F04195
S214008B100025604B0E46D3F8008004461D6018B949
S214008B2021252846BDE8F08190F8347007B30A681E
S214008B3003689A4240F0A3804A6843689A4240F02D
S214008B409E808A6883689A4240F09980CA68C368A3
S214008B509A4240F094800A6943699A4240F08F80B6
S214008B608A69C36B9A4240F08A804B698361D8E772
S214008B7068223946856B11F07BFDD6E90212336810
S214008B8004F1080023607368A5636360336963615A
S214008B907369A3612BF074FEB36904F14000E363CC
S214008BA09B68984720B9676C17B16368B3FBF7F703
S214008BB094F84330E761002BB2D00023656C23663F
S214008BC0002D64D0002F62D02368B3FBF5F205FBBE
S214008BD01233002B55D16668B6FBF5F305FB13631D
S214008BE0002B4ED120462BF043FBA36904330344ED
S214008BF09E4248D340F634726369CC3B934244D8D5
S214008C00B5F5805F43D3032120462BF05AFBD4E909
S214008C100001E36B1B6898470546E36B0220DB68A0
S214008C209847CDB941462046FFF77AF964280546AD
S214008C3004D141462046FFF773F90546666C5DB9D8
S214008C40236A2046143E5E432BF012FBA3690433CE
S214008C5003449E4238BF5A25002D0CBF0123002333
S214008C6084F8343007D1D4E900010B4A1368013385
S214008C7013602BF09FFEE06B2BF0BCFC51E75D25EC
S214008C804FE759254DE75A254BE75F2549E75B2512
S214008C9047E700BF2C350020283500202DE9FF418E
S214008CA00C4616461F46054680B390F834307BB314
S214008CB0B1F5801F2ED2DFF8608001212BF001FB7A
S214008CC02146424628460DF10F03FFF745F80446B5
S214008CD070B99DF80F30012B11D1D8F81030BB4277
S214008CE012D10246009031462846FFF743FB044661
S214008CF0E86B2BF07FFC204604B0BDE8F081022B29
S214008D0014BF2D246024F3E76324F1E72124F2E75F
S214008D101124F0E72924EEE7F43B00202DE9F04388
S214008D2085B00C4617461E460546DDF8308098B3DB
S214008D3090F8343093B3B1F5801F31D2DFF86490E9
S214008D4001212BF0BEFA21464A4628460DF10F03B4
S214008D50FFF702F8044688B99DF80F30012B14D1AE
S214008D60D9F8102006EB08039A4213D30090434626
S214008D70324639462846FFF7FDFA0446E86B2BF0E4
S214008D8039FC204605B0BDE8F083022B14BF2D2425
S214008D906024F3E76324F1E72124F2E71124F0E7E7
S214008DA02924EEE7F43B002073B50C46164605462C
S214008DB030B390F834302BB3B1F5801F24D20121A4
S214008DC02BF07FFA21462846104A0DF10703FEF7DE
S214008DD0C3FF044680B99DF80730032B0CD0022B46
S214008DE00CD1284609492BF063FC3060E86B2BF069
S214008DF001FC204602B070BD2D24F7E76124F5E79C
S214008E002124F6E71124F4E72924F2E7F43B0020B6
S214008E102DE9F3411E4600230C46174605463360EF
S214008E2050B390F834304BB3B1F5801F28D2DFF83A
S214008E30548001212BF045FA2146424628460DF182
S214008E400703FEF789FF0446A0B99DF80730032BF9
S214008E5010D0022B03BF01233B600423D8F8103048
S214008E6018BF38603360E86B2BF0C4FB204602B0B6
S214008E70BDE8F0812D24F6E72124F7E71124F5E775
S214008E802924F3E7F43B002073B50446056B2BF06A
S214008E90EFF9636E03449D422CBF002301238542F5
S214008EA094BF00252D1A207C84F85030656584F820
S214008EB05800A8B100230C4E1A46194620460096C4
S214008EC02BF0BAFC002305461A46194620460096A3
S214008ED02BF0BBFCE3682844984294BF0020C01ADD
S214008EE0E06502B070BD00BFFFFF0F002DE9F3473D
S214008EF01E4643690446B342884617469DF82890A6
S214008F004ED300258DF8075020462BF0B1F9D4F843
S214008F1030A082450AD2236AB5EB430F06D2002260
S214008F2020460DF10701FFF745F9B8B39DF8073065
S214008F30012B05D1002220460DF10701FFF73AF973
S214008F40B9F1030F06D0314620462BF081F9256B88
S214008F50854227D3144D4FF0FF31284600F0B2FA71
S214008F604B46294600222046C5E90376C5F8008010
S214008F70FFF716FB236E054663B12046FFF784FF16
S214008F8094F8503013B994F858301BB1236E04F19E
S214008F9050009847284602B0BDE8F0870135B3E791
S214008FA06225F7E71C25F5E7C83B00202DE9FF41C1
S214008FB00F4690461E46054698B390F8343093B355
S214008FC0B1F5801F31D21A4C02212BF07AF92246D5
S214008FD0394628460DF10F03FEF7BEFE024678B16D
S214008FE0012342460093394633462846FFF77EFF64
S214008FF00446E86B2BF0FEFA204604B0BDE8F0818C
S2140090009DF80F30012BEBD12169B142E8D10093D6
S214009010414633462846FFF7ADF904460028DFD11F
S214009020E7E72124E8E71124E6E72924E4E700BF80
S214009030F43B00202DE9F04790F8423086B0012B33
S21400904005460391A1EB020740F0AA80FF2F03D844
S2140090501E464FF0640807E00226012B14BF4FF0AF
S21400906032084FF06408013600244FF6FF79DFF827
S21400907044A195F84230012B14BF322364239C424E
S21400908002D35FFA88F40DE005AB22465146284627
S2140090902BF0ECFA95F84230012B059B34D14B456A
S2140090A02DD1E4B295F84230012B14BF322264224F
S2140090B0121BB24217D3012E39D10022012B05977D
S2140090C08DF8132027D1082205A90DF113002BF0E7
S2140090D089FD9DF81330059A42EA03222146284668
S2140090E0FFF730FA40B10223324900932846CC23DA
S2140090F0096803AAFFF7FAFE06B0BDE8F087DBB200
S21400910003B902340134B4E7591CCAD09BB2002B11
S214009110F8D10134F6E7102205A90DF113002BF063
S21400912061FD9DF81330059A42EA0342D6E7039A9A
S214009130012B059223D10823202205A90DF1130047
S2140091408DF813302BF04EFD9DF8132012022146A9
S2140091502846FFF7F7F995F84230611C012BC9B293
S2140091601AD10028BFD12846BDF81420FFF7EAF927
S2140091700028B8D10234BDF81620E1B2AFE71023BC
S214009180202205A90DF113008DF813302BF02AFDCF
S2140091909DF813201204DAE70028A4D1059A9EE76A
S2140091A0B7F5803F4FF00106BFF457AF4FF03208D7
S2140091B05AE700BFF43B002070B586B00E46054661
S2140091C00392A0B390F834309BB3B1F5801F32D22F
S2140091D002212BF076F831462846184A0DF117037F
S2140091E0FEF7BAFD044618B99DF81730032B0ED1CA
S2140091F00223314600932846CC2303AAFFF776FEC7
S2140092000446E86B2BF0F6F9204606B070BD022B3C
S2140092100BD10A4928462BF04BFA039902468142A5
S214009220EFD02846FFF706FFEAE76124E9E72124A6
S214009230EAE71124E8E72924E6E700BFF43B00202C
S214009240F7B50C461646054668B390F8343063B357
S214009250B1F5801F2BD202212BF033F82146284689
S214009260144A0DF10703FEF777FDC0B99DF80730E5
S214009270032B14D0022B14D10E4928462BF018FAD3
S214009280471C024639462846FFF7D4FE044606B178
S2140092903760E86B2BF0AEF9204603B0F0BD2D2406
S2140092A0F7E76124F5E72124F6E71124F4E72924FB
S2140092B0F2E700BFF43B002030B50C46054685B00B
S2140092C028B390F8343023B3B1F5801F23D202219F
S2140092D02AF0F7FF0DF10F03214628460F4AFEF746
S2140092E03BFD034688B99DF80F20032A0DD00322C4
S2140092F02146009202462846FFF7F8FD0446E86B32
S2140093002BF078F9204605B030BD2D24F7E7212450
S214009310F8E71124F6E72924F4E700BFF43B002021
S2140093202DE9F043466886B3056898464FF0000C72
S214009330A946AE4655F83C400CF1010CC4F31307A1
S214009340013401D0B94217D0B4450EF1080EF1D160
S2140093502F46002403E0B44207F1080712D055F860
S214009360343001340133F6D1C1F3130141EA085118
S214009370C7E90012BDE8F08341EA0851CEE90012C1
S214009380BDE8F083B8F1030F03D101230372BDE8F3
S214009390F083002303E0B34209F10809F5D055F83D
S2140093A033400133C4F30754032CF4D1C1F3130341
S2140093B043EA0853C9E90032BDE8F0832DE9F041DD
S2140093C00646406882B0B8B10F469046002433681F
S2140093D053F8345003EBC403C5F30752C5F3130127
S2140093E0013506D05B683046CDF80080B84718B126
S2140093F0706801348442EAD302B0BDE8F08100BF51
S214009400024B1968024B1868FFF780BB8C67002078
S214009410AC67002008B535F0D2F8014B186008BDDF
S214009420203C0020014B186835F0C4B8203C0020D2
S21400943073B504462248012A00EAC1119DF8185067
S21400944023F07C4007D9961E012E28D9073303F057
S2140094507F03194308E09DF81C300A43DB0603F03F
S214009460C053134343F060410023C4E900108DF855
S2140094700730B5B1202221460DF107002BF0B2FBD4
S2140094801A220DF10700211D2BF0ACFB08206368A3
S2140094909DF8072043EA8263636002B070BD114303
S2140094A0E2E71B220DF1070021462BF09BFB236809
S2140094B09DF80720042043EAC2632360EDE700BF5F
S2140094C080FFFF0738B5094B0D461A680021044691
S2140094D011F0CEF800234FF0FF322383C4E90025B5
S2140094E02361A260E382A37638BD00BFD88604005D
S2140094F00138C0B205289ABF014B185C012070479E
S214009500DD8604002DE9F0410746154600240E4688
S214009510596888B0490A012922464FEA510104F1E8
S2140095200104F8D8DC78997824031B88C90201F472
S214009530006104F480540C43C3F30A03520323442B
S21400954092B24FF000089C18274B6FEA044403932E
S21400955025F07843ED4302A90DF107001B22029384
S2140095608DF807802BF03EFB9DF80720029B02A992
S21400957043EAC2630DF107001B2225F078450493E9
S21400958002958DF807802BF02DFB9DF80720029B97
S2140095906FEA144443EAC26305934FF0FF3307941F
S2140095A0069307A9BB69012206F110009847BB691C
S2140095B005A90446012206F108009847BB69404504
S2140095C018BF044604A90122301D984701224045D1
S2140095D018BF0446BB69304603A99847404508BFF4
S2140095E0204608B0BDE8F08101009AB238B5104BAD
S2140095F00546D3F800310C4603F00303022B0BD0CC
S214009600032B0DD0012B0FD133F0B2F8032305B195
S214009610286004B1236038BD33F0F4F80723F6E77A
S21400962034F0E0FF0623F2E701230020EFE700BF57
S2140096300080005038B5134B0546D3F820010C4681
S21400964000F0070004281AD8DFE800F003090D111F
S2140096501500012305B1286004B1236038BD33F03E
S2140096604DF80423F6E733F083F80323F2E733F0EC
S21400967085F80523EEE733F077F80223EAE70023C0
S2140096801846E7E70080005038B5104B0546D3F87B
S21400969040310C4603F00303022B0BD0032B0DD0F6
S2140096A0012B0FD134F0A0FF082305B1286004B1C8
S2140096B0236038BD33F0A6F80723F6E734F097FFAB
S2140096C00923F2E701230020EFE700BF00800050E7
S2140096D038B5104B0546D3F860310C4603F003034B
S2140096E0022B0BD0032B0DD0012B0FD134F07CFFB7
S2140096F0082305B1286004B1236038BD33F082F832
S2140097000723F6E734F073FF0923F2E7012300206E
S214009710EFE700BF0080005041F6713210B5104CE4
S214009720104BA04294BF00240124D969DA639A68DA
S21400973001F4803122F4401242EA04529A600A4A46
S21400974090420A4AD2F818028CBF40F0020020F07D
S2140097500200C2F8180209B10022DA6310BD00BF89
S214009760005A62020000035080F0FA0200C0075060
S2140097702E4B98424AD022D82D4B984240D014D82F
S2140097802C4B984239D00AD82B4B984232D02B4BD0
S21400979098422FD02A4B98422CD000207047294B55
S2140097A09842FAD1284B186F7047284B98422AD017
S2140097B0274B9842F1D1244BD3F880007047254BB5
S2140097C098422BD009D8244B984223D0234B98425A
S2140097D0E3D11D4BD3F88C007047214B984221D023
S2140097E003F5740303F510539842D6D1164BD3F8FD
S2140097F098007047144B986D7047134B586E70471F
S214009800114B586F7047104B986F70470E4BD3F83C
S214009810840070470C4BD3F8880070470A4BD3F887
S21400982090007047084BD3F8940070470048E80152
S2140098300024F400C0CF6A0080841E0000093D00AA
S21400984040420F00405DC6000080E00FC0EA2101E4
S21400985080BA8C01007E560380D54302006CDC0281
S2140098600090D00337B50C460021114B0191D3F878
S2140098708031054603F00303022B0ED0032B11D0D4
S214009880012B03D101A8FFF7D5FE0D210DB1019BD9
S2140098902B6004B1216003B030BD32F06FFF0521AC
S2140098A00190F3E732F060FF02210190EEE700BF7F
S2140098B00080005038B5104B0546D3F840320C46B1
